{
  "_format": "hh-sol-artifact-1",
  "contractName": "Domains",
  "sourceName": "contracts/Domains.sol",
  "abi": [
    {
      "inputs": [
        {
          "internalType": "string",
          "name": "_tld",
          "type": "string"
        }
      ],
      "stateMutability": "payable",
      "type": "constructor"
    },
    {
      "inputs": [],
      "name": "Domains__AlreadyRegistered",
      "type": "error"
    },
    {
      "inputs": [
        {
          "internalType": "string",
          "name": "name",
          "type": "string"
        }
      ],
      "name": "Domains__InvalidName",
      "type": "error"
    },
    {
      "anonymous": false,
      "inputs": [
        {
          "indexed": true,
          "internalType": "address",
          "name": "owner",
          "type": "address"
        },
        {
          "indexed": true,
          "internalType": "address",
          "name": "approved",
          "type": "address"
        },
        {
          "indexed": true,
          "internalType": "uint256",
          "name": "tokenId",
          "type": "uint256"
        }
      ],
      "name": "Approval",
      "type": "event"
    },
    {
      "anonymous": false,
      "inputs": [
        {
          "indexed": true,
          "internalType": "address",
          "name": "owner",
          "type": "address"
        },
        {
          "indexed": true,
          "internalType": "address",
          "name": "operator",
          "type": "address"
        },
        {
          "indexed": false,
          "internalType": "bool",
          "name": "approved",
          "type": "bool"
        }
      ],
      "name": "ApprovalForAll",
      "type": "event"
    },
    {
      "anonymous": false,
      "inputs": [
        {
          "indexed": true,
          "internalType": "address",
          "name": "from",
          "type": "address"
        },
        {
          "indexed": true,
          "internalType": "address",
          "name": "to",
          "type": "address"
        },
        {
          "indexed": true,
          "internalType": "uint256",
          "name": "tokenId",
          "type": "uint256"
        }
      ],
      "name": "Transfer",
      "type": "event"
    },
    {
      "inputs": [
        {
          "internalType": "address",
          "name": "to",
          "type": "address"
        },
        {
          "internalType": "uint256",
          "name": "tokenId",
          "type": "uint256"
        }
      ],
      "name": "approve",
      "outputs": [],
      "stateMutability": "nonpayable",
      "type": "function"
    },
    {
      "inputs": [
        {
          "internalType": "address",
          "name": "owner",
          "type": "address"
        }
      ],
      "name": "balanceOf",
      "outputs": [
        {
          "internalType": "uint256",
          "name": "",
          "type": "uint256"
        }
      ],
      "stateMutability": "view",
      "type": "function"
    },
    {
      "inputs": [
        {
          "internalType": "string",
          "name": "",
          "type": "string"
        }
      ],
      "name": "domains",
      "outputs": [
        {
          "internalType": "address",
          "name": "",
          "type": "address"
        }
      ],
      "stateMutability": "view",
      "type": "function"
    },
    {
      "inputs": [
        {
          "internalType": "string",
          "name": "name",
          "type": "string"
        }
      ],
      "name": "getAddress",
      "outputs": [
        {
          "internalType": "address",
          "name": "",
          "type": "address"
        }
      ],
      "stateMutability": "view",
      "type": "function"
    },
    {
      "inputs": [],
      "name": "getAllNames",
      "outputs": [
        {
          "internalType": "string[]",
          "name": "",
          "type": "string[]"
        }
      ],
      "stateMutability": "view",
      "type": "function"
    },
    {
      "inputs": [
        {
          "internalType": "uint256",
          "name": "tokenId",
          "type": "uint256"
        }
      ],
      "name": "getApproved",
      "outputs": [
        {
          "internalType": "address",
          "name": "",
          "type": "address"
        }
      ],
      "stateMutability": "view",
      "type": "function"
    },
    {
      "inputs": [
        {
          "internalType": "string",
          "name": "name",
          "type": "string"
        }
      ],
      "name": "getRecord",
      "outputs": [
        {
          "internalType": "string",
          "name": "",
          "type": "string"
        }
      ],
      "stateMutability": "view",
      "type": "function"
    },
    {
      "inputs": [
        {
          "internalType": "address",
          "name": "owner",
          "type": "address"
        },
        {
          "internalType": "address",
          "name": "operator",
          "type": "address"
        }
      ],
      "name": "isApprovedForAll",
      "outputs": [
        {
          "internalType": "bool",
          "name": "",
          "type": "bool"
        }
      ],
      "stateMutability": "view",
      "type": "function"
    },
    {
      "inputs": [],
      "name": "name",
      "outputs": [
        {
          "internalType": "string",
          "name": "",
          "type": "string"
        }
      ],
      "stateMutability": "view",
      "type": "function"
    },
    {
      "inputs": [
        {
          "internalType": "uint256",
          "name": "",
          "type": "uint256"
        }
      ],
      "name": "names",
      "outputs": [
        {
          "internalType": "string",
          "name": "",
          "type": "string"
        }
      ],
      "stateMutability": "view",
      "type": "function"
    },
    {
      "inputs": [],
      "name": "owner",
      "outputs": [
        {
          "internalType": "address",
          "name": "",
          "type": "address"
        }
      ],
      "stateMutability": "view",
      "type": "function"
    },
    {
      "inputs": [
        {
          "internalType": "uint256",
          "name": "tokenId",
          "type": "uint256"
        }
      ],
      "name": "ownerOf",
      "outputs": [
        {
          "internalType": "address",
          "name": "",
          "type": "address"
        }
      ],
      "stateMutability": "view",
      "type": "function"
    },
    {
      "inputs": [
        {
          "internalType": "string",
          "name": "name",
          "type": "string"
        }
      ],
      "name": "price",
      "outputs": [
        {
          "internalType": "uint256",
          "name": "",
          "type": "uint256"
        }
      ],
      "stateMutability": "pure",
      "type": "function"
    },
    {
      "inputs": [
        {
          "internalType": "string",
          "name": "",
          "type": "string"
        }
      ],
      "name": "records",
      "outputs": [
        {
          "internalType": "string",
          "name": "",
          "type": "string"
        }
      ],
      "stateMutability": "view",
      "type": "function"
    },
    {
      "inputs": [
        {
          "internalType": "string",
          "name": "name",
          "type": "string"
        }
      ],
      "name": "register",
      "outputs": [],
      "stateMutability": "payable",
      "type": "function"
    },
    {
      "inputs": [
        {
          "internalType": "address",
          "name": "from",
          "type": "address"
        },
        {
          "internalType": "address",
          "name": "to",
          "type": "address"
        },
        {
          "internalType": "uint256",
          "name": "tokenId",
          "type": "uint256"
        }
      ],
      "name": "safeTransferFrom",
      "outputs": [],
      "stateMutability": "nonpayable",
      "type": "function"
    },
    {
      "inputs": [
        {
          "internalType": "address",
          "name": "from",
          "type": "address"
        },
        {
          "internalType": "address",
          "name": "to",
          "type": "address"
        },
        {
          "internalType": "uint256",
          "name": "tokenId",
          "type": "uint256"
        },
        {
          "internalType": "bytes",
          "name": "data",
          "type": "bytes"
        }
      ],
      "name": "safeTransferFrom",
      "outputs": [],
      "stateMutability": "nonpayable",
      "type": "function"
    },
    {
      "inputs": [
        {
          "internalType": "address",
          "name": "operator",
          "type": "address"
        },
        {
          "internalType": "bool",
          "name": "approved",
          "type": "bool"
        }
      ],
      "name": "setApprovalForAll",
      "outputs": [],
      "stateMutability": "nonpayable",
      "type": "function"
    },
    {
      "inputs": [
        {
          "internalType": "string",
          "name": "name",
          "type": "string"
        },
        {
          "internalType": "string",
          "name": "record",
          "type": "string"
        }
      ],
      "name": "setRecord",
      "outputs": [],
      "stateMutability": "nonpayable",
      "type": "function"
    },
    {
      "inputs": [
        {
          "internalType": "bytes4",
          "name": "interfaceId",
          "type": "bytes4"
        }
      ],
      "name": "supportsInterface",
      "outputs": [
        {
          "internalType": "bool",
          "name": "",
          "type": "bool"
        }
      ],
      "stateMutability": "view",
      "type": "function"
    },
    {
      "inputs": [],
      "name": "symbol",
      "outputs": [
        {
          "internalType": "string",
          "name": "",
          "type": "string"
        }
      ],
      "stateMutability": "view",
      "type": "function"
    },
    {
      "inputs": [],
      "name": "tld",
      "outputs": [
        {
          "internalType": "string",
          "name": "",
          "type": "string"
        }
      ],
      "stateMutability": "view",
      "type": "function"
    },
    {
      "inputs": [
        {
          "internalType": "uint256",
          "name": "tokenId",
          "type": "uint256"
        }
      ],
      "name": "tokenURI",
      "outputs": [
        {
          "internalType": "string",
          "name": "",
          "type": "string"
        }
      ],
      "stateMutability": "view",
      "type": "function"
    },
    {
      "inputs": [
        {
          "internalType": "address",
          "name": "from",
          "type": "address"
        },
        {
          "internalType": "address",
          "name": "to",
          "type": "address"
        },
        {
          "internalType": "uint256",
          "name": "tokenId",
          "type": "uint256"
        }
      ],
      "name": "transferFrom",
      "outputs": [],
      "stateMutability": "nonpayable",
      "type": "function"
    },
    {
      "inputs": [
        {
          "internalType": "string",
          "name": "name",
          "type": "string"
        }
      ],
      "name": "valid",
      "outputs": [
        {
          "internalType": "bool",
          "name": "",
          "type": "bool"
        }
      ],
      "stateMutability": "pure",
      "type": "function"
    },
    {
      "inputs": [],
      "name": "withdraw",
      "outputs": [],
      "stateMutability": "nonpayable",
      "type": "function"
    }
  ],
  "bytecode": "0x6080604052604051806108a0016040528061086b81526020016200523561086b9139600a90816200003191906200051f565b506040518060400160405280600d81526020017f3c2f746578743e3c2f7376673e00000000000000000000000000000000000000815250600b90816200007891906200051f565b5060405162005aa038038062005aa083398181016040528101906200009e91906200076a565b6040518060400160405280601681526020017f446576656c6f706572204e616d652053657276696365000000000000000000008152506040518060400160405280600581526020017f4465764e5300000000000000000000000000000000000000000000000000000081525081600090816200011b91906200051f565b5080600190816200012d91906200051f565b50505080600990816200014191906200051f565b506200018e6040518060400160405280601881526020017f2573206e616d652073657276696365206465706c6f796564000000000000000081525082620001d660201b62001a2a1760201c565b33600860006101000a81548173ffffffffffffffffffffffffffffffffffffffff021916908373ffffffffffffffffffffffffffffffffffffffff1602179055505062000848565b620002788282604051602401620001ef9291906200080d565b6040516020818303038152906040527f4b5c4277000000000000000000000000000000000000000000000000000000007bffffffffffffffffffffffffffffffffffffffffffffffffffffffff19166020820180517bffffffffffffffffffffffffffffffffffffffffffffffffffffffff83818316178352505050506200027c60201b60201c565b5050565b60008151905060006a636f6e736f6c652e6c6f679050602083016000808483855afa5050505050565b600081519050919050565b7f4e487b7100000000000000000000000000000000000000000000000000000000600052604160045260246000fd5b7f4e487b7100000000000000000000000000000000000000000000000000000000600052602260045260246000fd5b600060028204905060018216806200032757607f821691505b6020821081036200033d576200033c620002df565b5b50919050565b60008190508160005260206000209050919050565b60006020601f8301049050919050565b600082821b905092915050565b600060088302620003a77fffffffffffffffffffffffffffffffffffffffffffffffffffffffffffffffff8262000368565b620003b3868362000368565b95508019841693508086168417925050509392505050565b6000819050919050565b6000819050919050565b600062000400620003fa620003f484620003cb565b620003d5565b620003cb565b9050919050565b6000819050919050565b6200041c83620003df565b620004346200042b8262000407565b84845462000375565b825550505050565b600090565b6200044b6200043c565b6200045881848462000411565b505050565b5b8181101562000480576200047460008262000441565b6001810190506200045e565b5050565b601f821115620004cf57620004998162000343565b620004a48462000358565b81016020851015620004b4578190505b620004cc620004c38562000358565b8301826200045d565b50505b505050565b600082821c905092915050565b6000620004f460001984600802620004d4565b1980831691505092915050565b60006200050f8383620004e1565b9150826002028217905092915050565b6200052a82620002a5565b67ffffffffffffffff811115620005465762000545620002b0565b5b6200055282546200030e565b6200055f82828562000484565b600060209050601f83116001811462000597576000841562000582578287015190505b6200058e858262000501565b865550620005fe565b601f198416620005a78662000343565b60005b82811015620005d157848901518255600182019150602085019450602081019050620005aa565b86831015620005f15784890151620005ed601f891682620004e1565b8355505b6001600288020188555050505b505050505050565b6000604051905090565b600080fd5b600080fd5b600080fd5b600080fd5b6000601f19601f8301169050919050565b620006408262000624565b810181811067ffffffffffffffff82111715620006625762000661620002b0565b5b80604052505050565b60006200067762000606565b905062000685828262000635565b919050565b600067ffffffffffffffff821115620006a857620006a7620002b0565b5b620006b38262000624565b9050602081019050919050565b60005b83811015620006e0578082015181840152602081019050620006c3565b60008484015250505050565b600062000703620006fd846200068a565b6200066b565b9050828152602081018484840111156200072257620007216200061f565b5b6200072f848285620006c0565b509392505050565b600082601f8301126200074f576200074e6200061a565b5b815162000761848260208601620006ec565b91505092915050565b60006020828403121562000783576200078262000610565b5b600082015167ffffffffffffffff811115620007a457620007a362000615565b5b620007b28482850162000737565b91505092915050565b600082825260208201905092915050565b6000620007d982620002a5565b620007e58185620007bb565b9350620007f7818560208601620006c0565b620008028162000624565b840191505092915050565b60006040820190508181036000830152620008298185620007cc565b905081810360208301526200083f8184620007cc565b90509392505050565b6149dd80620008586000396000f3fe6080604052600436106101815760003560e01c806370a08231116100d1578063bf40fac11161008a578063e985e9c511610064578063e985e9c5146105de578063f2c298be1461061b578063fb825e5f14610637578063fe2c61981461066257610181565b8063bf40fac11461053b578063c1880a9814610578578063c87b56dd146105a157610181565b806370a08231146104195780638da5cb5b1461045657806395d89b41146104815780639791c097146104ac578063a22cb465146104e9578063b88d4fde1461051257610181565b8063264492351161013e57806342842e0e1161011857806342842e0e146103395780634622ab0314610362578063541e771d1461039f5780636352211e146103dc57610181565b806326449235146102ba5780632d551432146102f75780633ccfd60b1461032257610181565b806301ffc9a71461018657806306fdde03146101c3578063081812fc146101ee578063095ea7b31461022b57806311dd88451461025457806323b872dd14610291575b600080fd5b34801561019257600080fd5b506101ad60048036038101906101a89190612d68565b61069f565b6040516101ba9190612db0565b60405180910390f35b3480156101cf57600080fd5b506101d8610781565b6040516101e59190612e5b565b60405180910390f35b3480156101fa57600080fd5b5061021560048036038101906102109190612eb3565b610813565b6040516102229190612f21565b60405180910390f35b34801561023757600080fd5b50610252600480360381019061024d9190612f68565b610859565b005b34801561026057600080fd5b5061027b6004803603810190610276919061300d565b610970565b6040516102889190612e5b565b60405180910390f35b34801561029d57600080fd5b506102b860048036038101906102b3919061305a565b610a23565b005b3480156102c657600080fd5b506102e160048036038101906102dc91906131dd565b610a83565b6040516102ee9190612f21565b60405180910390f35b34801561030357600080fd5b5061030c610acc565b6040516103199190612e5b565b60405180910390f35b34801561032e57600080fd5b50610337610b5a565b005b34801561034557600080fd5b50610360600480360381019061035b919061305a565b610c69565b005b34801561036e57600080fd5b5061038960048036038101906103849190612eb3565b610c89565b6040516103969190612e5b565b60405180910390f35b3480156103ab57600080fd5b506103c660048036038101906103c191906131dd565b610d29565b6040516103d39190612e5b565b60405180910390f35b3480156103e857600080fd5b5061040360048036038101906103fe9190612eb3565b610ddf565b6040516104109190612f21565b60405180910390f35b34801561042557600080fd5b50610440600480360381019061043b9190613226565b610e90565b60405161044d9190613262565b60405180910390f35b34801561046257600080fd5b5061046b610f47565b6040516104789190612f21565b60405180910390f35b34801561048d57600080fd5b50610496610f6d565b6040516104a39190612e5b565b60405180910390f35b3480156104b857600080fd5b506104d360048036038101906104ce919061300d565b610fff565b6040516104e09190612db0565b60405180910390f35b3480156104f557600080fd5b50610510600480360381019061050b91906132a9565b6110b3565b005b34801561051e57600080fd5b506105396004803603810190610534919061338a565b6110c9565b005b34801561054757600080fd5b50610562600480360381019061055d919061300d565b61112b565b60405161056f9190612f21565b60405180910390f35b34801561058457600080fd5b5061059f600480360381019061059a919061340d565b611176565b005b3480156105ad57600080fd5b506105c860048036038101906105c39190612eb3565b611224565b6040516105d59190612e5b565b60405180910390f35b3480156105ea57600080fd5b506106056004803603810190610600919061348e565b611336565b6040516106129190612db0565b60405180910390f35b6106356004803603810190610630919061300d565b6113ca565b005b34801561064357600080fd5b5061064c6117c7565b60405161065991906135da565b60405180910390f35b34801561066e57600080fd5b506106896004803603810190610684919061300d565b611988565b6040516106969190613262565b60405180910390f35b60007f80ac58cd000000000000000000000000000000000000000000000000000000007bffffffffffffffffffffffffffffffffffffffffffffffffffffffff1916827bffffffffffffffffffffffffffffffffffffffffffffffffffffffff1916148061076a57507f5b5e139f000000000000000000000000000000000000000000000000000000007bffffffffffffffffffffffffffffffffffffffffffffffffffffffff1916827bffffffffffffffffffffffffffffffffffffffffffffffffffffffff1916145b8061077a575061077982611ac6565b5b9050919050565b6060600080546107909061362b565b80601f01602080910402602001604051908101604052809291908181526020018280546107bc9061362b565b80156108095780601f106107de57610100808354040283529160200191610809565b820191906000526020600020905b8154815290600101906020018083116107ec57829003601f168201915b5050505050905090565b600061081e82611b30565b6004600083815260200190815260200160002060009054906101000a900473ffffffffffffffffffffffffffffffffffffffff169050919050565b600061086482610ddf565b90508073ffffffffffffffffffffffffffffffffffffffff168373ffffffffffffffffffffffffffffffffffffffff16036108d4576040517f08c379a00000000000000000000000000000000000000000000000000000000081526004016108cb906136ce565b60405180910390fd5b8073ffffffffffffffffffffffffffffffffffffffff166108f3611b7b565b73ffffffffffffffffffffffffffffffffffffffff16148061092257506109218161091c611b7b565b611336565b5b610961576040517f08c379a000000000000000000000000000000000000000000000000000000000815260040161095890613760565b60405180910390fd5b61096b8383611b83565b505050565b6060600d83836040516109849291906137b0565b9081526020016040518091039020805461099d9061362b565b80601f01602080910402602001604051908101604052809291908181526020018280546109c99061362b565b8015610a165780601f106109eb57610100808354040283529160200191610a16565b820191906000526020600020905b8154815290600101906020018083116109f957829003601f168201915b5050505050905092915050565b610a34610a2e611b7b565b82611c3c565b610a73576040517f08c379a0000000000000000000000000000000000000000000000000000000008152600401610a6a9061383b565b60405180910390fd5b610a7e838383611cd1565b505050565b600c818051602081018201805184825260208301602085012081835280955050505050506000915054906101000a900473ffffffffffffffffffffffffffffffffffffffff1681565b60098054610ad99061362b565b80601f0160208091040260200160405190810160405280929190818152602001828054610b059061362b565b8015610b525780601f10610b2757610100808354040283529160200191610b52565b820191906000526020600020905b815481529060010190602001808311610b3557829003601f168201915b505050505081565b600860009054906101000a900473ffffffffffffffffffffffffffffffffffffffff1673ffffffffffffffffffffffffffffffffffffffff163373ffffffffffffffffffffffffffffffffffffffff1614610bb457600080fd5b600047905060003373ffffffffffffffffffffffffffffffffffffffff1682604051610bdf9061388c565b60006040518083038185875af1925050503d8060008114610c1c576040519150601f19603f3d011682016040523d82523d6000602084013e610c21565b606091505b5050905080610c65576040517f08c379a0000000000000000000000000000000000000000000000000000000008152600401610c5c906138ed565b60405180910390fd5b5050565b610c84838383604051806020016040528060008152506110c9565b505050565b600e6020528060005260406000206000915090508054610ca89061362b565b80601f0160208091040260200160405190810160405280929190818152602001828054610cd49061362b565b8015610d215780601f10610cf657610100808354040283529160200191610d21565b820191906000526020600020905b815481529060010190602001808311610d0457829003601f168201915b505050505081565b600d818051602081018201805184825260208301602085012081835280955050505050506000915090508054610d5e9061362b565b80601f0160208091040260200160405190810160405280929190818152602001828054610d8a9061362b565b8015610dd75780601f10610dac57610100808354040283529160200191610dd7565b820191906000526020600020905b815481529060010190602001808311610dba57829003601f168201915b505050505081565b6000806002600084815260200190815260200160002060009054906101000a900473ffffffffffffffffffffffffffffffffffffffff169050600073ffffffffffffffffffffffffffffffffffffffff168173ffffffffffffffffffffffffffffffffffffffff1603610e87576040517f08c379a0000000000000000000000000000000000000000000000000000000008152600401610e7e90613959565b60405180910390fd5b80915050919050565b60008073ffffffffffffffffffffffffffffffffffffffff168273ffffffffffffffffffffffffffffffffffffffff1603610f00576040517f08c379a0000000000000000000000000000000000000000000000000000000008152600401610ef7906139eb565b60405180910390fd5b600360008373ffffffffffffffffffffffffffffffffffffffff1673ffffffffffffffffffffffffffffffffffffffff168152602001908152602001600020549050919050565b600860009054906101000a900473ffffffffffffffffffffffffffffffffffffffff1681565b606060018054610f7c9061362b565b80601f0160208091040260200160405190810160405280929190818152602001828054610fa89061362b565b8015610ff55780601f10610fca57610100808354040283529160200191610ff5565b820191906000526020600020905b815481529060010190602001808311610fd857829003601f168201915b5050505050905090565b6000600361105084848080601f016020809104026020016040519081016040528093929190818152602001838380828437600081840152601f19601f82011690508083019250505050505050611f37565b101580156110ab5750600a6110a884848080601f016020809104026020016040519081016040528093929190818152602001838380828437600081840152601f19601f82011690508083019250505050505050611f37565b11155b905092915050565b6110c56110be611b7b565b83836120ec565b5050565b6110da6110d4611b7b565b83611c3c565b611119576040517f08c379a00000000000000000000000000000000000000000000000000000000081526004016111109061383b565b60405180910390fd5b61112584848484612258565b50505050565b6000600c838360405161113f9291906137b0565b908152602001604051809103902060009054906101000a900473ffffffffffffffffffffffffffffffffffffffff16905092915050565b3373ffffffffffffffffffffffffffffffffffffffff16600c858560405161119f9291906137b0565b908152602001604051809103902060009054906101000a900473ffffffffffffffffffffffffffffffffffffffff1673ffffffffffffffffffffffffffffffffffffffff16146111ee57600080fd5b8181600d86866040516112029291906137b0565b9081526020016040518091039020918261121d929190613bc2565b5050505050565b606061122f82611b30565b600060066000848152602001908152602001600020805461124f9061362b565b80601f016020809104026020016040519081016040528092919081815260200182805461127b9061362b565b80156112c85780601f1061129d576101008083540402835291602001916112c8565b820191906000526020600020905b8154815290600101906020018083116112ab57829003601f168201915b5050505050905060006112d96122b4565b905060008151036112ee578192505050611331565b60008251111561132357808260405160200161130b929190613cc3565b60405160208183030381529060405292505050611331565b61132c846122cb565b925050505b919050565b6000600560008473ffffffffffffffffffffffffffffffffffffffff1673ffffffffffffffffffffffffffffffffffffffff16815260200190815260200160002060008373ffffffffffffffffffffffffffffffffffffffff1673ffffffffffffffffffffffffffffffffffffffff16815260200190815260200160002060009054906101000a900460ff16905092915050565b600073ffffffffffffffffffffffffffffffffffffffff16600c83836040516113f49291906137b0565b908152602001604051809103902060009054906101000a900473ffffffffffffffffffffffffffffffffffffffff1673ffffffffffffffffffffffffffffffffffffffff1614611470576040517f8c25995200000000000000000000000000000000000000000000000000000000815260040160405180910390fd5b61147a8282610fff565b6114bd5781816040517f8a5ee5ef0000000000000000000000000000000000000000000000000000000081526004016114b4929190613d14565b60405180910390fd5b60006114c98383611988565b90508034101561150e576040517f08c379a000000000000000000000000000000000000000000000000000000000815260040161150590613d84565b60405180910390fd5b60008383600960405160200161152693929190613e73565b60405160208183030381529060405290506000600a82600b60405160200161155093929190613ea4565b6040516020818303038152906040529050600061156d6007612333565b905060006115be87878080601f016020809104026020016040519081016040528093929190818152602001838380828437600081840152601f19601f82011690508083019250505050505050611f37565b905060006115cb82612341565b90506116bf6040518060600160405280603081526020016149786030913989898080601f016020809104026020016040519081016040528093929190818152602001838380828437600081840152601f19601f820116905080830192505050505050506009805461163b9061362b565b80601f01602080910402602001604051908101604052809291908181526020018280546116679061362b565b80156116b45780601f10611689576101008083540402835291602001916116b4565b820191906000526020600020905b81548152906001019060200180831161169757829003601f168201915b5050505050866124a1565b60006116f5866116ce87612543565b846040516020016116e193929190614051565b604051602081830303815290604052612543565b905060008160405160200161170a91906140fa565b604051602081830303815290604052905061172533866126a6565b61172f85826126c4565b33600c8b8b6040516117429291906137b0565b908152602001604051809103902060006101000a81548173ffffffffffffffffffffffffffffffffffffffff021916908373ffffffffffffffffffffffffffffffffffffffff1602179055508989600e600088815260200190815260200160002091826117b0929190613bc2565b506117bb6007612731565b50505050505050505050565b60606117ea60405180606001604052806023815260200161491560239139612747565b60006117f66007612333565b67ffffffffffffffff81111561180f5761180e6130b2565b5b60405190808252806020026020018201604052801561184257816020015b606081526020019060019003908161182d5790505b50905060005b6118526007612333565b81101561198057600e600082815260200190815260200160002080546118779061362b565b80601f01602080910402602001604051908101604052809291908181526020018280546118a39061362b565b80156118f05780601f106118c5576101008083540402835291602001916118f0565b820191906000526020600020905b8154815290600101906020018083116118d357829003601f168201915b50505050508282815181106119085761190761411c565b5b602002602001018190525061196d6040518060400160405280601781526020017f4e616d6520666f7220746f6b656e202564206973202573000000000000000000815250828484815181106119605761195f61411c565b5b60200260200101516127e0565b80806119789061417a565b915050611848565b508091505090565b6000806119d884848080601f016020809104026020016040519081016040528093929190818152602001838380828437600081840152601f19601f82011690508083019250505050505050611f37565b9050600081116119e757600080fd5b60038103611a005767016345785d8a0000915050611a24565b60048103611a185766b1a2bc2ec50000915050611a24565b66470de4df8200009150505b92915050565b611ac28282604051602401611a409291906141c2565b6040516020818303038152906040527f4b5c4277000000000000000000000000000000000000000000000000000000007bffffffffffffffffffffffffffffffffffffffffffffffffffffffff19166020820180517bffffffffffffffffffffffffffffffffffffffffffffffffffffffff838183161783525050505061287f565b5050565b60007f01ffc9a7000000000000000000000000000000000000000000000000000000007bffffffffffffffffffffffffffffffffffffffffffffffffffffffff1916827bffffffffffffffffffffffffffffffffffffffffffffffffffffffff1916149050919050565b611b39816128a8565b611b78576040517f08c379a0000000000000000000000000000000000000000000000000000000008152600401611b6f90613959565b60405180910390fd5b50565b600033905090565b816004600083815260200190815260200160002060006101000a81548173ffffffffffffffffffffffffffffffffffffffff021916908373ffffffffffffffffffffffffffffffffffffffff160217905550808273ffffffffffffffffffffffffffffffffffffffff16611bf683610ddf565b73ffffffffffffffffffffffffffffffffffffffff167f8c5be1e5ebec7d5bd14f71427d1e84f3dd0314c0f7b2291e5b200ac8c7c3b92560405160405180910390a45050565b600080611c4883610ddf565b90508073ffffffffffffffffffffffffffffffffffffffff168473ffffffffffffffffffffffffffffffffffffffff161480611c8a5750611c898185611336565b5b80611cc857508373ffffffffffffffffffffffffffffffffffffffff16611cb084610813565b73ffffffffffffffffffffffffffffffffffffffff16145b91505092915050565b8273ffffffffffffffffffffffffffffffffffffffff16611cf182610ddf565b73ffffffffffffffffffffffffffffffffffffffff1614611d47576040517f08c379a0000000000000000000000000000000000000000000000000000000008152600401611d3e9061426b565b60405180910390fd5b600073ffffffffffffffffffffffffffffffffffffffff168273ffffffffffffffffffffffffffffffffffffffff1603611db6576040517f08c379a0000000000000000000000000000000000000000000000000000000008152600401611dad906142fd565b60405180910390fd5b611dc1838383612914565b611dcc600082611b83565b6001600360008573ffffffffffffffffffffffffffffffffffffffff1673ffffffffffffffffffffffffffffffffffffffff1681526020019081526020016000206000828254611e1c919061431d565b925050819055506001600360008473ffffffffffffffffffffffffffffffffffffffff1673ffffffffffffffffffffffffffffffffffffffff1681526020019081526020016000206000828254611e739190614351565b92505081905550816002600083815260200190815260200160002060006101000a81548173ffffffffffffffffffffffffffffffffffffffff021916908373ffffffffffffffffffffffffffffffffffffffff160217905550808273ffffffffffffffffffffffffffffffffffffffff168473ffffffffffffffffffffffffffffffffffffffff167fddf252ad1be2c89b69c2b068fc378daa952ba7f163c4a11628f55a4df523b3ef60405160405180910390a4611f32838383612919565b505050565b60008060008084519050600092505b808210156120e1576000858381518110611f6357611f6261411c565b5b602001015160f81c60f81b9050608060f81b817effffffffffffffffffffffffffffffffffffffffffffffffffffffffffffff19161015611fb257600183611fab9190614351565b92506120cd565b60e060f81b817effffffffffffffffffffffffffffffffffffffffffffffffffffffffffffff19161015611ff457600283611fed9190614351565b92506120cc565b60f060f81b817effffffffffffffffffffffffffffffffffffffffffffffffffffffffffffff191610156120365760038361202f9190614351565b92506120cb565b60f8801b817effffffffffffffffffffffffffffffffffffffffffffffffffffffffffffff19161015612077576004836120709190614351565b92506120ca565b60fc60f81b817effffffffffffffffffffffffffffffffffffffffffffffffffffffffffffff191610156120b9576005836120b29190614351565b92506120c9565b6006836120c69190614351565b92505b5b5b5b5b5082806120d99061417a565b935050611f46565b829350505050919050565b8173ffffffffffffffffffffffffffffffffffffffff168373ffffffffffffffffffffffffffffffffffffffff160361215a576040517f08c379a0000000000000000000000000000000000000000000000000000000008152600401612151906143d1565b60405180910390fd5b80600560008573ffffffffffffffffffffffffffffffffffffffff1673ffffffffffffffffffffffffffffffffffffffff16815260200190815260200160002060008473ffffffffffffffffffffffffffffffffffffffff1673ffffffffffffffffffffffffffffffffffffffff16815260200190815260200160002060006101000a81548160ff0219169083151502179055508173ffffffffffffffffffffffffffffffffffffffff168373ffffffffffffffffffffffffffffffffffffffff167f17307eab39ab6107e8899845ad3d59bd9653f200f220920489ca2b5937696c318360405161224b9190612db0565b60405180910390a3505050565b612263848484611cd1565b61226f8484848461291e565b6122ae576040517f08c379a00000000000000000000000000000000000000000000000000000000081526004016122a590614463565b60405180910390fd5b50505050565b606060405180602001604052806000815250905090565b60606122d682611b30565b60006122e06122b4565b90506000815111612300576040518060200160405280600081525061232b565b8061230a84612341565b60405160200161231b929190613cc3565b6040516020818303038152906040525b915050919050565b600081600001549050919050565b606060008203612388576040518060400160405280600181526020017f3000000000000000000000000000000000000000000000000000000000000000815250905061249c565b600082905060005b600082146123ba5780806123a39061417a565b915050600a826123b391906144b2565b9150612390565b60008167ffffffffffffffff8111156123d6576123d56130b2565b5b6040519080825280601f01601f1916602001820160405280156124085781602001600182028036833780820191505090505b5090505b6000851461249557600182612421919061431d565b9150600a8561243091906144e3565b603061243c9190614351565b60f81b8183815181106124525761245161411c565b5b60200101907effffffffffffffffffffffffffffffffffffffffffffffffffffffffffffff1916908160001a905350600a8561248e91906144b2565b945061240c565b8093505050505b919050565b61253d848484846040516024016124bb9493929190614514565b6040516020818303038152906040527f8eafb02b000000000000000000000000000000000000000000000000000000007bffffffffffffffffffffffffffffffffffffffffffffffffffffffff19166020820180517bffffffffffffffffffffffffffffffffffffffffffffffffffffffff838183161783525050505061287f565b50505050565b60606000825103612565576040518060200160405280600081525090506126a1565b600060405180606001604052806040815260200161493860409139905060006003600285516125949190614351565b61259e91906144b2565b60046125aa919061456e565b67ffffffffffffffff8111156125c3576125c26130b2565b5b6040519080825280601f01601f1916602001820160405280156125f55781602001600182028036833780820191505090505b509050600182016020820185865187015b80821015612661576003820191508151603f8160121c168501518453600184019350603f81600c1c168501518453600184019350603f8160061c168501518453600184019350603f8116850151845360018401935050612606565b505060038651066001811461267d576002811461269057612698565b603d6001830353603d6002830353612698565b603d60018303535b50505080925050505b919050565b6126c0828260405180602001604052806000815250612aa5565b5050565b6126cd826128a8565b61270c576040517f08c379a000000000000000000000000000000000000000000000000000000000815260040161270390614622565b60405180910390fd5b8060066000848152602001908152602001600020908161272c9190614642565b505050565b6001816000016000828254019250508190555050565b6127dd8160405160240161275b9190612e5b565b6040516020818303038152906040527f41304fac000000000000000000000000000000000000000000000000000000007bffffffffffffffffffffffffffffffffffffffffffffffffffffffff19166020820180517bffffffffffffffffffffffffffffffffffffffffffffffffffffffff838183161783525050505061287f565b50565b61287a8383836040516024016127f893929190614714565b6040516020818303038152906040527f5970e089000000000000000000000000000000000000000000000000000000007bffffffffffffffffffffffffffffffffffffffffffffffffffffffff19166020820180517bffffffffffffffffffffffffffffffffffffffffffffffffffffffff838183161783525050505061287f565b505050565b60008151905060006a636f6e736f6c652e6c6f679050602083016000808483855afa5050505050565b60008073ffffffffffffffffffffffffffffffffffffffff166002600084815260200190815260200160002060009054906101000a900473ffffffffffffffffffffffffffffffffffffffff1673ffffffffffffffffffffffffffffffffffffffff1614159050919050565b505050565b505050565b600061293f8473ffffffffffffffffffffffffffffffffffffffff16612b00565b15612a98578373ffffffffffffffffffffffffffffffffffffffff1663150b7a02612968611b7b565b8786866040518563ffffffff1660e01b815260040161298a94939291906147ae565b6020604051808303816000875af19250505080156129c657506040513d601f19601f820116820180604052508101906129c3919061480f565b60015b612a48573d80600081146129f6576040519150601f19603f3d011682016040523d82523d6000602084013e6129fb565b606091505b506000815103612a40576040517f08c379a0000000000000000000000000000000000000000000000000000000008152600401612a3790614463565b60405180910390fd5b805181602001fd5b63150b7a0260e01b7bffffffffffffffffffffffffffffffffffffffffffffffffffffffff1916817bffffffffffffffffffffffffffffffffffffffffffffffffffffffff191614915050612a9d565b600190505b949350505050565b612aaf8383612b23565b612abc600084848461291e565b612afb576040517f08c379a0000000000000000000000000000000000000000000000000000000008152600401612af290614463565b60405180910390fd5b505050565b6000808273ffffffffffffffffffffffffffffffffffffffff163b119050919050565b600073ffffffffffffffffffffffffffffffffffffffff168273ffffffffffffffffffffffffffffffffffffffff1603612b92576040517f08c379a0000000000000000000000000000000000000000000000000000000008152600401612b8990614888565b60405180910390fd5b612b9b816128a8565b15612bdb576040517f08c379a0000000000000000000000000000000000000000000000000000000008152600401612bd2906148f4565b60405180910390fd5b612be760008383612914565b6001600360008473ffffffffffffffffffffffffffffffffffffffff1673ffffffffffffffffffffffffffffffffffffffff1681526020019081526020016000206000828254612c379190614351565b92505081905550816002600083815260200190815260200160002060006101000a81548173ffffffffffffffffffffffffffffffffffffffff021916908373ffffffffffffffffffffffffffffffffffffffff160217905550808273ffffffffffffffffffffffffffffffffffffffff16600073ffffffffffffffffffffffffffffffffffffffff167fddf252ad1be2c89b69c2b068fc378daa952ba7f163c4a11628f55a4df523b3ef60405160405180910390a4612cf860008383612919565b5050565b6000604051905090565b600080fd5b600080fd5b60007fffffffff0000000000000000000000000000000000000000000000000000000082169050919050565b612d4581612d10565b8114612d5057600080fd5b50565b600081359050612d6281612d3c565b92915050565b600060208284031215612d7e57612d7d612d06565b5b6000612d8c84828501612d53565b91505092915050565b60008115159050919050565b612daa81612d95565b82525050565b6000602082019050612dc56000830184612da1565b92915050565b600081519050919050565b600082825260208201905092915050565b60005b83811015612e05578082015181840152602081019050612dea565b60008484015250505050565b6000601f19601f8301169050919050565b6000612e2d82612dcb565b612e378185612dd6565b9350612e47818560208601612de7565b612e5081612e11565b840191505092915050565b60006020820190508181036000830152612e758184612e22565b905092915050565b6000819050919050565b612e9081612e7d565b8114612e9b57600080fd5b50565b600081359050612ead81612e87565b92915050565b600060208284031215612ec957612ec8612d06565b5b6000612ed784828501612e9e565b91505092915050565b600073ffffffffffffffffffffffffffffffffffffffff82169050919050565b6000612f0b82612ee0565b9050919050565b612f1b81612f00565b82525050565b6000602082019050612f366000830184612f12565b92915050565b612f4581612f00565b8114612f5057600080fd5b50565b600081359050612f6281612f3c565b92915050565b60008060408385031215612f7f57612f7e612d06565b5b6000612f8d85828601612f53565b9250506020612f9e85828601612e9e565b9150509250929050565b600080fd5b600080fd5b600080fd5b60008083601f840112612fcd57612fcc612fa8565b5b8235905067ffffffffffffffff811115612fea57612fe9612fad565b5b60208301915083600182028301111561300657613005612fb2565b5b9250929050565b6000806020838503121561302457613023612d06565b5b600083013567ffffffffffffffff81111561304257613041612d0b565b5b61304e85828601612fb7565b92509250509250929050565b60008060006060848603121561307357613072612d06565b5b600061308186828701612f53565b935050602061309286828701612f53565b92505060406130a386828701612e9e565b9150509250925092565b600080fd5b7f4e487b7100000000000000000000000000000000000000000000000000000000600052604160045260246000fd5b6130ea82612e11565b810181811067ffffffffffffffff82111715613109576131086130b2565b5b80604052505050565b600061311c612cfc565b905061312882826130e1565b919050565b600067ffffffffffffffff821115613148576131476130b2565b5b61315182612e11565b9050602081019050919050565b82818337600083830152505050565b600061318061317b8461312d565b613112565b90508281526020810184848401111561319c5761319b6130ad565b5b6131a784828561315e565b509392505050565b600082601f8301126131c4576131c3612fa8565b5b81356131d484826020860161316d565b91505092915050565b6000602082840312156131f3576131f2612d06565b5b600082013567ffffffffffffffff81111561321157613210612d0b565b5b61321d848285016131af565b91505092915050565b60006020828403121561323c5761323b612d06565b5b600061324a84828501612f53565b91505092915050565b61325c81612e7d565b82525050565b60006020820190506132776000830184613253565b92915050565b61328681612d95565b811461329157600080fd5b50565b6000813590506132a38161327d565b92915050565b600080604083850312156132c0576132bf612d06565b5b60006132ce85828601612f53565b92505060206132df85828601613294565b9150509250929050565b600067ffffffffffffffff821115613304576133036130b2565b5b61330d82612e11565b9050602081019050919050565b600061332d613328846132e9565b613112565b905082815260208101848484011115613349576133486130ad565b5b61335484828561315e565b509392505050565b600082601f83011261337157613370612fa8565b5b813561338184826020860161331a565b91505092915050565b600080600080608085870312156133a4576133a3612d06565b5b60006133b287828801612f53565b94505060206133c387828801612f53565b93505060406133d487828801612e9e565b925050606085013567ffffffffffffffff8111156133f5576133f4612d0b565b5b6134018782880161335c565b91505092959194509250565b6000806000806040858703121561342757613426612d06565b5b600085013567ffffffffffffffff81111561344557613444612d0b565b5b61345187828801612fb7565b9450945050602085013567ffffffffffffffff81111561347457613473612d0b565b5b61348087828801612fb7565b925092505092959194509250565b600080604083850312156134a5576134a4612d06565b5b60006134b385828601612f53565b92505060206134c485828601612f53565b9150509250929050565b600081519050919050565b600082825260208201905092915050565b6000819050602082019050919050565b600082825260208201905092915050565b600061351682612dcb565b61352081856134fa565b9350613530818560208601612de7565b61353981612e11565b840191505092915050565b6000613550838361350b565b905092915050565b6000602082019050919050565b6000613570826134ce565b61357a81856134d9565b93508360208202850161358c856134ea565b8060005b858110156135c857848403895281516135a98582613544565b94506135b483613558565b925060208a01995050600181019050613590565b50829750879550505050505092915050565b600060208201905081810360008301526135f48184613565565b905092915050565b7f4e487b7100000000000000000000000000000000000000000000000000000000600052602260045260246000fd5b6000600282049050600182168061364357607f821691505b602082108103613656576136556135fc565b5b50919050565b7f4552433732313a20617070726f76616c20746f2063757272656e74206f776e6560008201527f7200000000000000000000000000000000000000000000000000000000000000602082015250565b60006136b8602183612dd6565b91506136c38261365c565b604082019050919050565b600060208201905081810360008301526136e7816136ab565b9050919050565b7f4552433732313a20617070726f76652063616c6c6572206973206e6f7420746f60008201527f6b656e206f776e6572206e6f7220617070726f76656420666f7220616c6c0000602082015250565b600061374a603e83612dd6565b9150613755826136ee565b604082019050919050565b600060208201905081810360008301526137798161373d565b9050919050565b600081905092915050565b60006137978385613780565b93506137a483858461315e565b82840190509392505050565b60006137bd82848661378b565b91508190509392505050565b7f4552433732313a2063616c6c6572206973206e6f7420746f6b656e206f776e6560008201527f72206e6f7220617070726f766564000000000000000000000000000000000000602082015250565b6000613825602e83612dd6565b9150613830826137c9565b604082019050919050565b6000602082019050818103600083015261385481613818565b9050919050565b600081905092915050565b50565b600061387660008361385b565b915061388182613866565b600082019050919050565b600061389782613869565b9150819050919050565b7f4661696c656420746f2077697468647261770000000000000000000000000000600082015250565b60006138d7601283612dd6565b91506138e2826138a1565b602082019050919050565b60006020820190508181036000830152613906816138ca565b9050919050565b7f4552433732313a20696e76616c696420746f6b656e2049440000000000000000600082015250565b6000613943601883612dd6565b915061394e8261390d565b602082019050919050565b6000602082019050818103600083015261397281613936565b9050919050565b7f4552433732313a2061646472657373207a65726f206973206e6f74206120766160008201527f6c6964206f776e65720000000000000000000000000000000000000000000000602082015250565b60006139d5602983612dd6565b91506139e082613979565b604082019050919050565b60006020820190508181036000830152613a04816139c8565b9050919050565b600082905092915050565b60008190508160005260206000209050919050565b60006020601f8301049050919050565b600082821b905092915050565b600060088302613a787fffffffffffffffffffffffffffffffffffffffffffffffffffffffffffffffff82613a3b565b613a828683613a3b565b95508019841693508086168417925050509392505050565b6000819050919050565b6000613abf613aba613ab584612e7d565b613a9a565b612e7d565b9050919050565b6000819050919050565b613ad983613aa4565b613aed613ae582613ac6565b848454613a48565b825550505050565b600090565b613b02613af5565b613b0d818484613ad0565b505050565b5b81811015613b3157613b26600082613afa565b600181019050613b13565b5050565b601f821115613b7657613b4781613a16565b613b5084613a2b565b81016020851015613b5f578190505b613b73613b6b85613a2b565b830182613b12565b50505b505050565b600082821c905092915050565b6000613b9960001984600802613b7b565b1980831691505092915050565b6000613bb28383613b88565b9150826002028217905092915050565b613bcc8383613a0b565b67ffffffffffffffff811115613be557613be46130b2565b5b613bef825461362b565b613bfa828285613b35565b6000601f831160018114613c295760008415613c17578287013590505b613c218582613ba6565b865550613c89565b601f198416613c3786613a16565b60005b82811015613c5f57848901358255600182019150602085019450602081019050613c3a565b86831015613c7c5784890135613c78601f891682613b88565b8355505b6001600288020188555050505b50505050505050565b6000613c9d82612dcb565b613ca78185613780565b9350613cb7818560208601612de7565b80840191505092915050565b6000613ccf8285613c92565b9150613cdb8284613c92565b91508190509392505050565b6000613cf38385612dd6565b9350613d0083858461315e565b613d0983612e11565b840190509392505050565b60006020820190508181036000830152613d2f818486613ce7565b90509392505050565b7f4e6f7420656e6f756768204d4154494320706169640000000000000000000000600082015250565b6000613d6e601583612dd6565b9150613d7982613d38565b602082019050919050565b60006020820190508181036000830152613d9d81613d61565b9050919050565b7f2e00000000000000000000000000000000000000000000000000000000000000600082015250565b6000613dda600183613780565b9150613de582613da4565b600182019050919050565b60008154613dfd8161362b565b613e078186613780565b94506001821660008114613e225760018114613e3757613e6a565b60ff1983168652811515820286019350613e6a565b613e4085613a16565b60005b83811015613e6257815481890152600182019150602081019050613e43565b838801955050505b50505092915050565b6000613e8082858761378b565b9150613e8b82613dcd565b9150613e978284613df0565b9150819050949350505050565b6000613eb08286613df0565b9150613ebc8285613c92565b9150613ec88284613df0565b9150819050949350505050565b7f7b226e616d65223a202200000000000000000000000000000000000000000000600082015250565b6000613f0b600a83613780565b9150613f1682613ed5565b600a82019050919050565b7f222c20226465736372697074696f6e223a20224120646f6d61696e206f6e207460008201527f686520506f6c79676f6e204e616d652053657276696365222c2022696d61676560208201527f223a2022646174613a696d6167652f7376672b786d6c3b6261736536342c0000604082015250565b6000613fa3605e83613780565b9150613fae82613f21565b605e82019050919050565b7f222c226c656e677468223a220000000000000000000000000000000000000000600082015250565b6000613fef600c83613780565b9150613ffa82613fb9565b600c82019050919050565b7f227d000000000000000000000000000000000000000000000000000000000000600082015250565b600061403b600283613780565b915061404682614005565b600282019050919050565b600061405c82613efe565b91506140688286613c92565b915061407382613f96565b915061407f8285613c92565b915061408a82613fe2565b91506140968284613c92565b91506140a18261402e565b9150819050949350505050565b7f646174613a6170706c69636174696f6e2f6a736f6e3b6261736536342c000000600082015250565b60006140e4601d83613780565b91506140ef826140ae565b601d82019050919050565b6000614105826140d7565b91506141118284613c92565b915081905092915050565b7f4e487b7100000000000000000000000000000000000000000000000000000000600052603260045260246000fd5b7f4e487b7100000000000000000000000000000000000000000000000000000000600052601160045260246000fd5b600061418582612e7d565b91507fffffffffffffffffffffffffffffffffffffffffffffffffffffffffffffffff82036141b7576141b661414b565b5b600182019050919050565b600060408201905081810360008301526141dc8185612e22565b905081810360208301526141f08184612e22565b90509392505050565b7f4552433732313a207472616e736665722066726f6d20696e636f72726563742060008201527f6f776e6572000000000000000000000000000000000000000000000000000000602082015250565b6000614255602583612dd6565b9150614260826141f9565b604082019050919050565b6000602082019050818103600083015261428481614248565b9050919050565b7f4552433732313a207472616e7366657220746f20746865207a65726f2061646460008201527f7265737300000000000000000000000000000000000000000000000000000000602082015250565b60006142e7602483612dd6565b91506142f28261428b565b604082019050919050565b60006020820190508181036000830152614316816142da565b9050919050565b600061432882612e7d565b915061433383612e7d565b925082820390508181111561434b5761434a61414b565b5b92915050565b600061435c82612e7d565b915061436783612e7d565b925082820190508082111561437f5761437e61414b565b5b92915050565b7f4552433732313a20617070726f766520746f2063616c6c657200000000000000600082015250565b60006143bb601983612dd6565b91506143c682614385565b602082019050919050565b600060208201905081810360008301526143ea816143ae565b9050919050565b7f4552433732313a207472616e7366657220746f206e6f6e20455243373231526560008201527f63656976657220696d706c656d656e7465720000000000000000000000000000602082015250565b600061444d603283612dd6565b9150614458826143f1565b604082019050919050565b6000602082019050818103600083015261447c81614440565b9050919050565b7f4e487b7100000000000000000000000000000000000000000000000000000000600052601260045260246000fd5b60006144bd82612e7d565b91506144c883612e7d565b9250826144d8576144d7614483565b5b828204905092915050565b60006144ee82612e7d565b91506144f983612e7d565b92508261450957614508614483565b5b828206905092915050565b6000608082019050818103600083015261452e8187612e22565b905081810360208301526145428186612e22565b905081810360408301526145568185612e22565b90506145656060830184613253565b95945050505050565b600061457982612e7d565b915061458483612e7d565b925082820261459281612e7d565b915082820484148315176145a9576145a861414b565b5b5092915050565b7f45524337323155524953746f726167653a2055524920736574206f66206e6f6e60008201527f6578697374656e7420746f6b656e000000000000000000000000000000000000602082015250565b600061460c602e83612dd6565b9150614617826145b0565b604082019050919050565b6000602082019050818103600083015261463b816145ff565b9050919050565b61464b82612dcb565b67ffffffffffffffff811115614664576146636130b2565b5b61466e825461362b565b614679828285613b35565b600060209050601f8311600181146146ac576000841561469a578287015190505b6146a48582613ba6565b86555061470c565b601f1984166146ba86613a16565b60005b828110156146e2578489015182556001820191506020850194506020810190506146bd565b868310156146ff57848901516146fb601f891682613b88565b8355505b6001600288020188555050505b505050505050565b6000606082019050818103600083015261472e8186612e22565b905061473d6020830185613253565b818103604083015261474f8184612e22565b9050949350505050565b600081519050919050565b600082825260208201905092915050565b600061478082614759565b61478a8185614764565b935061479a818560208601612de7565b6147a381612e11565b840191505092915050565b60006080820190506147c36000830187612f12565b6147d06020830186612f12565b6147dd6040830185613253565b81810360608301526147ef8184614775565b905095945050505050565b60008151905061480981612d3c565b92915050565b60006020828403121561482557614824612d06565b5b6000614833848285016147fa565b91505092915050565b7f4552433732313a206d696e7420746f20746865207a65726f2061646472657373600082015250565b6000614872602083612dd6565b915061487d8261483c565b602082019050919050565b600060208201905081810360008301526148a181614865565b9050919050565b7f4552433732313a20746f6b656e20616c7265616479206d696e74656400000000600082015250565b60006148de601c83612dd6565b91506148e9826148a8565b602082019050919050565b6000602082019050818103600083015261490d816148d1565b905091905056fe47657474696e6720616c6c20746865206e616d65732066726f6d20636f6e74726163744142434445464748494a4b4c4d4e4f505152535455565758595a6162636465666768696a6b6c6d6e6f707172737475767778797a303132333435363738392b2f5265676973746572696e672025732e2573206f6e2074686520636f6e74726163742069746820746f6b656e4944202564a2646970667358221220b4bf4a7f676222c2517dddb2ceb0d5051b07ead7a60e173d1a643d4233b722fa64736f6c634300081100333c73766720786d6c6e733d22687474703a2f2f7777772e77332e6f72672f323030302f737667222077696474683d2232373022206865696768743d22323730222066696c6c3d226e6f6e65223e3c706174682066696c6c3d2275726c282342292220643d224d302030683237307632373048307a222f3e3c646566733e3c66696c7465722069643d22412220636f6c6f722d696e746572706f6c6174696f6e2d66696c746572733d2273524742222066696c746572556e6974733d227573657253706163654f6e55736522206865696768743d22323730222077696474683d22323730223e3c666544726f70536861646f772064783d2230222064793d22312220737464446576696174696f6e3d22322220666c6f6f642d6f7061636974793d222e323235222077696474683d223230302522206865696768743d2232303025222f3e3c2f66696c7465723e3c2f646566733e3c7061746820643d224d37322e3836332034322e393439632d2e3636382d2e3338372d312e3432362d2e35392d322e3139372d2e3539732d312e3532392e3230342d322e3139372e35396c2d31302e30383120362e3033322d362e383520332e3933342d31302e30383120362e303332632d2e3636382e3338372d312e3432362e35392d322e3139372e3539732d312e3532392d2e3230342d322e3139372d2e35396c2d382e3031332d342e37323161342e353220342e35322030203020312d312e3538392d312e363136632d2e3338342d2e3636352d2e3539342d312e3431382d2e3630382d322e313837762d392e3331632d2e3031332d2e3737352e3138352d312e3533382e3537322d322e32303861342e323520342e323520302030203120312e3632352d312e3539356c372e3838342d342e3539632e3636382d2e33383720312e3432362d2e353920322e3139372d2e353973312e3532392e32303420322e3139372e35396c372e38383420342e353961342e353220342e353220302030203120312e35383920312e363136632e3338342e3636352e35393420312e3431382e36303820322e31383776362e3033326c362e38352d342e303635762d362e303332632e3031332d2e3737352d2e3138352d312e3533382d2e3537322d322e32303861342e323520342e32352030203020302d312e3632352d312e3539354c34312e3435362032342e3539632d2e3636382d2e3338372d312e3432362d2e35392d322e3139372d2e3539732d312e3532392e3230342d322e3139372e35396c2d31342e38363420382e36353561342e323520342e32352030203020302d312e36323520312e353935632d2e3338372e36372d2e35383520312e3433342d2e35373220322e3230387631372e343431632d2e3031332e3737352e31383520312e3533382e35373220322e32303861342e323520342e323520302030203020312e36323520312e3539356c31342e38363420382e363535632e3636382e33383720312e3432362e353920322e3139372e353973312e3532392d2e32303420322e3139372d2e35396c31302e3038312d352e39303120362e38352d342e3036352031302e3038312d352e393031632e3636382d2e33383720312e3432362d2e353920322e3139372d2e353973312e3532392e32303420322e3139372e35396c372e38383420342e353961342e353220342e353220302030203120312e35383920312e363136632e3338342e3636352e35393420312e3431382e36303820322e31383776392e333131632e3031332e3737352d2e31383520312e3533382d2e35373220322e32303861342e323520342e32352030203020312d312e36323520312e3539356c2d372e38383420342e373231632d2e3636382e3338372d312e3432362e35392d322e3139372e3539732d312e3532392d2e3230342d322e3139372d2e35396c2d372e3838342d342e353961342e353220342e35322030203020312d312e3538392d312e363136632d2e3338352d2e3636352d2e3539342d312e3431382d2e3630382d322e313837762d362e3033326c2d362e383520342e30363576362e303332632d2e3031332e3737352e31383520312e3533382e35373220322e32303861342e323520342e323520302030203020312e36323520312e3539356c31342e38363420382e363535632e3636382e33383720312e3432362e353920322e3139372e353973312e3532392d2e32303420322e3139372d2e35396c31342e3836342d382e363535632e3635372d2e33393420312e3230342d2e393520312e3538392d312e363136732e3539342d312e3431382e3630392d322e3138375635352e353338632e3031332d2e3737352d2e3138352d312e3533382d2e3537322d322e32303861342e323520342e32352030203020302d312e3632352d312e3539356c2d31342e3939332d382e3738367a222066696c6c3d2223666666222f3e3c646566733e3c6c696e6561724772616469656e742069643d2242222078313d2230222079313d2230222078323d22323730222079323d2232373022206772616469656e74556e6974733d227573657253706163654f6e557365223e3c73746f702073746f702d636f6c6f723d2223626635656232222f3e3c73746f70206f66667365743d2231222073746f702d636f6c6f723d2223356331333532222073746f702d6f7061636974793d222e3939222f3e3c2f6c696e6561724772616469656e743e3c2f646566733e3c7465787420783d2233322e352220793d223233312220666f6e742d73697a653d223237222066696c6c3d2223666666222066696c7465723d2275726c282341292220666f6e742d66616d696c793d22506c7573204a616b617274612053616e732c44656a6156752053616e732c4e6f746f20436f6c6f7220456d6f6a692c4170706c6520436f6c6f7220456d6f6a692c73616e732d73657269662220666f6e742d7765696768743d22626f6c64223e",
  "linkReferences": {},
  "deployedLinkReferences": {}
}